:020000040000fa
:080000000001040000000000f3
:020000040000fa
:04000800d001000023
:020000040000fa
:04000c00d00100001f
:020000040000fa
:04001000d00100001b
:020000040000fa
:04001400d001000017
:020000040000fa
:04001800d001000013
:020000040000fa
:04001c00d00100000f
:020000040000fa
:04002000d00100000b
:020000040000fa
:04002400d001000007
:020000040000fa
:04002800c80100000b
:020000040000fa
:04002c00d0010000ff
:020000040000fa
:04003000d0010000fb
:020000040000fa
:040034009c04000028
:020000040000fa
:04003800d0010000f3
:020000040000fa
:04003c00d0010000ef
:020000040000fa
:04004000d0010000eb
:020000040000fa
:04004400d0010000e7
:020000040000fa
:04004800d0010000e3
:020000040000fa
:04004c00d0010000df
:020000040000fa
:04005000d0010000db
:020000040000fa
:04005400d0010000d7
:020000040000fa
:04005800d0010000d3
:020000040000fa
:04005c00d0010000cf
:020000040000fa
:04006000d0010000cb
:020000040000fa
:04006400d0010000c7
:020000040000fa
:04006800d0010000c3
:020000040000fa
:04006c00d0010000bf
:020000040000fa
:04007000d0010000bb
:020000040000fa
:04007400d0010000b7
:020000040000fa
:04007800d0010000b3
:020000040000fa
:04007c00d0010000af
:020000040000fa
:04008000d0010000ab
:020000040000fa
:04008400d0010000a7
:020000040000fa
:04008800d0010000a3
:020000040000fa
:04008c00d00100009f
:020000040000fa
:04009000d00100009b
:020000040000fa
:04009400d001000097
:020000040000fa
:04009800d001000093
:020000040000fa
:04009c00d00100008f
:020000040000fa
:0400a000d00100008b
:020000040000fa
:0400a400d001000087
:020000040000fa
:0400a800d001000083
:020000040000fa
:0400ac00d00100007f
:020000040000fa
:0400b000d00100007b
:020000040000fa
:0400b400d001000077
:020000040000fa
:0400b800d001000073
:020000040000fa
:0400bc00d00100006f
:020000040000fa
:0400c000d00100006b
:020000040000fa
:0400c400d001000067
:020000040000fa
:0400c800d001000063
:020000040000fa
:0400cc00d00100005f
:020000040000fa
:0400d000d00100005b
:020000040000fa
:0400d400d001000057
:020000040000fa
:0400d800d001000053
:020000040000fa
:04010800d001000022
:020000040000fa
:04010c00d00100001e
:020000040000fa
:04011000d00100001a
:020000040000fa
:04011400d001000016
:020000040000fa
:04011800d001000012
:020000040000fa
:04011c00d00100000e
:020000040000fa
:04012000d00100000a
:020000040000fa
:04012400d001000006
:020000040000fa
:04012800c80100000a
:020000040000fa
:04012c00d0010000fe
:020000040000fa
:04013000d0010000fa
:020000040000fa
:040134009c04000027
:020000040000fa
:04013800d0010000f2
:020000040000fa
:04013c00d0010000ee
:020000040000fa
:04014000d0010000ea
:020000040000fa
:04014400d0010000e6
:020000040000fa
:04014800d0010000e2
:020000040000fa
:04014c00d0010000de
:020000040000fa
:04015000d0010000da
:020000040000fa
:04015400d0010000d6
:020000040000fa
:04015800d0010000d2
:020000040000fa
:04015c00d0010000ce
:020000040000fa
:04016000d0010000ca
:020000040000fa
:04016400d0010000c6
:020000040000fa
:04016800d0010000c2
:020000040000fa
:04016c00d0010000be
:020000040000fa
:04017000d0010000ba
:020000040000fa
:04017400d0010000b6
:020000040000fa
:04017800d0010000b2
:020000040000fa
:04017c00d0010000ae
:020000040000fa
:04018000d0010000aa
:020000040000fa
:04018400d0010000a6
:020000040000fa
:04018800d0010000a2
:020000040000fa
:04018c00d00100009e
:020000040000fa
:04019000d00100009a
:020000040000fa
:04019400d001000096
:020000040000fa
:04019800d001000092
:020000040000fa
:04019c00d00100008e
:020000040000fa
:0401a000d00100008a
:020000040000fa
:0401a400d001000086
:020000040000fa
:0401a800d001000082
:020000040000fa
:0401ac00d00100007e
:020000040000fa
:0401b000d00100007a
:020000040000fa
:0401b400d001000076
:020000040000fa
:0401b800d001000072
:020000040000fa
:0401bc00d00100006e
:020000040000fa
:0401c000d00100006a
:020000040000fa
:0401c400d001000066
:020000040000fa
:0401c800d001000062
:020000040000fa
:0401cc00d00100005e
:020000040000fa
:0401d000d00100005a
:020000040000fa
:0401d400d001000056
:020000040000fa
:0401d800d001000052
:020000040000fa
:100200006f8220000eff20000e0188000000000019
:10021000000020000000e000020032000001200089
:1002200020028800140007005f0007000000e000c3
:1002300003003a00a04a200001002000020037001d
:100240000000200001002000810f7000010032003a
:1002500014000700000020000000e000020032004f
:100260000000020000000000e001020000000000a9
:100270000040da000000fe004440a900a000200079
:100280000000e0000300320000002000a001880010
:100290004440a800000006008a1f78008b1f7800e9
:1002a0000000060091018800800478000000eb0047
:1002b0001a003700e284440032a0b4009905ba0065
:1002c000e284440032a0b4009906ba00e2844400fb
:1002d00032a0b4000006eb00476fde00fd07b2005d
:1002e000636ce10003003a00ebff07000000eb0045
:1002f0000a003700606ce10004003a00005deb008a
:100300008b05e900fdff3e00040037006168e10055
:10031000010032000086eb000b00070019c7ba008d
:100320001905ba000e04e00003003a000a00e000dc
:10033000e0ff3a0000000600fe07b2009e018800c0
:100340008a047800f5ff3700395dba008b05e900b3
:100350000c003200295dba008b05e900080032006c
:100360000c00e00003003a00e284440032a0b40034
:10037000f5ff370019ddba008b05e900faff3a00f6
:100380008904e800e184440032a0b40000000600c3
:100390000000fa008460a9000080fa000040060016
:0c03a0000040da000000fe000000050034
:020000040000fa
:1003ac00583a0000005900003a0000005a3a000088
:0403bc00000000003d
:020000040000fa
:1003c0000000fa009f000700fb000700601d2800e6
:1003d000be000700e200070090082000ca000700e6
:1003e000901d2800b9000700dd000700400c200028
:1003f000c5000700c01d2800b400070088000700e2
:100400007f000700770007008000eb00d00220008b
:1004100004010700b10020001003200001010700c3
:10042000d1002000c0022000fe0007008100200053
:10043000d0022000fb0007009030200030408800f0
:10044000304080002040880020408000104088001c
:10045000903020006040880060408000504088005c
:10046000504080004040880090302000904088003c
:10047000904080008040880080408000704088006c
:100480000028ef00520007004b00070000408000ea
:10049000e10f500046003a0020032000e900070069
:1004a0001040880010408000801088003003200039
:1004b000e400070020408800204080008010880071
:1004c00020408000c800dd00104080000100700066
:1004d000304088003040800041812000e900070062
:1004e0009f000700200820008700070040812000af
:1004f0007600070040032000d2000700404088003b
:10050000404080008010880050032000cd0007008c
:10051000504088005040800080108800504080008b
:10052000c800dd004040800001007000604088008d
:1005300060408000a1812000d200070088000700f1
:10054000b008200070000700a08120005f000700b5
:1005500060032000bb0007007040880070408000ee
:100560008010880070032000b600070080408800db
:10057000804080008010880080408000c800dd003e
:100580007040800001007000904088009040800022
:1005900001822000bb00070071000700600c2000f2
:1005a0005900070000822000480007000028ef00e3
:1005b00000000000b5ff37000000fa000de2a800bf
:1005c0000f42a80005e1a8000080fa000000060024
:1005d0000000fa008460a9008c60a8000080fa0086
:1005e000000006000000fa00f0472000101188000b
:1005f00000002800001188000080fa0000000600ba
:100600000000fa000021ef00000827001008880011
:1006100000022000200888000080fa000000060088
:100620000000fa000042200060108800000028004e
:100630007010880010002000a01088000080fa00d0
:10064000000006000000fa00c822ef0000000000d1
:10065000ca22ef0000000000c622ef0000000000e8
:100660000080eb004015880000000000d422ef005d
:1006700000000000d622ef0000000000d302a90015
:1006800000000000e022ef0000000000e222ef0086
:1006900000000000de22ef0000000000de42a800a3
:1006a00000000000ce22ef0000000000d022ef008a
:1006b00000000000cc22ef0000000000cdc2a80026
:1006c000000000000080fa0000000600801f780093
:1006d000811f780080007800314078000004e0003d
:1006e00006003200b0030200000000009a0302007e
:1006f000000000006c030400000000004f007800c0
:10070000cf00780000000600e082a9000000000091
:10071000e0a2a90000000000d502a800000000002f
:10072000c8e2b70000000000d502a90000000000e8
:1007300000000600e082a80000000000e0a2a9007e
:1007400000000000d502a80000000000c8e2b700c9
:1007500000000000d502a900000000000000060013
:10076000801f7800e082a90000000000c602f800a7
:10077000f00f2000c622b70000000000e0a2a80091
:1007800000000000d502a80000000000c8e2af0091
:10079000c603040000000000d502a900000000000c
:1007a000d4a2a90000000000c602f9000000000069
:1007b0004f0078000000060002000800050000005d
:1007c0007a040200000000000003200084030200fd
:1007d00000000000000000000100200004000800ec
:1007e00008000000b00302000000000001007800d3
:1007f00006040200000000008100e80084030200fb
:100800000000000000000000000006000060010081
:100810008003050080000500100005006000050051
:10082000c0000500f10fb2004800dd0001007000bb
:10083000c922a9003204020000000000c922a80059
:10084000000006000008b3004800dd00c922a9002e
:100850003204020000000000c922a800f00fb2001c
:10086000000006008500a90020118800000000009b
:100870008500ae0038040400000000002011800054
:100880000000060000f0a700720404000000000051
:10089000b40220004e0404000000000084587800d8
:1008a0000403200003000900845878000002eb00d4
:1008b0008450780001017800a30020008000eb0044
:1008c0001300fc00110009000380d8000103b000f0
:1008d000015178000480e7005e040400000000007d
:1008e00000000600d40220000000ea004e040400cc
:1008f00000000000801f7800010028000000e900cf
:10090000feff3a004f00780000000600801f7800cc
:10091000811f7800a10020000000eb000000e9002a
:10092000feff3a008100e900fbff3a00cf007800ab
:100930004f00780000000600801f7800cb02aa005c
:1009400010002000004088008460a9004f0078005b
:04095000004006005d
:020000040000fa
:100954000008000026000000000000000000000065
:020000040000fa
:0200000401f009
:04000000e0b9000063
:020000040000fa
:0200000401f009
:04000400ff7f00007a
:020000040000fa
:0200000401f009
:04000800feff0000f7
:020000040000fa
:0200000401f009
:04001400ffff0000ea
:00000001FF
